{
  "contractName": "RegisterDrupal",
  "abi": [
    {
      "inputs": [],
      "payable": false,
      "stateMutability": "nonpayable",
      "type": "constructor"
    },
    {
      "anonymous": false,
      "inputs": [
        {
          "indexed": true,
          "name": "from",
          "type": "address"
        },
        {
          "indexed": false,
          "name": "hash",
          "type": "bytes32"
        }
      ],
      "name": "AccountCreated",
      "type": "event"
    },
    {
      "constant": false,
      "inputs": [
        {
          "name": "hash",
          "type": "bytes32"
        }
      ],
      "name": "newUser",
      "outputs": [],
      "payable": false,
      "stateMutability": "nonpayable",
      "type": "function"
    },
    {
      "constant": true,
      "inputs": [
        {
          "name": "hash",
          "type": "bytes32"
        }
      ],
      "name": "validateUserByHash",
      "outputs": [
        {
          "name": "result",
          "type": "address"
        }
      ],
      "payable": false,
      "stateMutability": "view",
      "type": "function"
    },
    {
      "constant": true,
      "inputs": [],
      "name": "contractExists",
      "outputs": [
        {
          "name": "result",
          "type": "bool"
        }
      ],
      "payable": false,
      "stateMutability": "pure",
      "type": "function"
    },
    {
      "constant": false,
      "inputs": [
        {
          "name": "registrationDisabled",
          "type": "bool"
        }
      ],
      "name": "adminSetRegistrationDisabled",
      "outputs": [],
      "payable": false,
      "stateMutability": "nonpayable",
      "type": "function"
    },
    {
      "constant": false,
      "inputs": [
        {
          "name": "accountAdmin",
          "type": "address"
        }
      ],
      "name": "adminSetAccountAdministrator",
      "outputs": [],
      "payable": false,
      "stateMutability": "nonpayable",
      "type": "function"
    },
    {
      "constant": false,
      "inputs": [],
      "name": "adminRetrieveDonations",
      "outputs": [],
      "payable": false,
      "stateMutability": "nonpayable",
      "type": "function"
    },
    {
      "constant": false,
      "inputs": [],
      "name": "adminDeleteRegistry",
      "outputs": [],
      "payable": false,
      "stateMutability": "nonpayable",
      "type": "function"
    }
  ],
  "bytecode": "0x608060405234801561001057600080fd5b5033600160006101000a81548173ffffffffffffffffffffffffffffffffffffffff021916908373ffffffffffffffffffffffffffffffffffffffff16021790555033600260006101000a81548173ffffffffffffffffffffffffffffffffffffffff021916908373ffffffffffffffffffffffffffffffffffffffff1602179055506000600260146101000a81548160ff0219169083151502179055506108b1806100bd6000396000f300608060405260043610610083576000357c0100000000000000000000000000000000000000000000000000000000900463ffffffff16806306ae9483146100885780632573ce27146100b7578063345e3416146101285780633af41dc21461013f57806349f0c90d146101565780639b6d86d614610199578063f845862f146101c8575b600080fd5b34801561009457600080fd5b5061009d6101f9565b604051808215151515815260200191505060405180910390f35b3480156100c357600080fd5b506100e66004803603810190808035600019169060200190929190505050610202565b604051808273ffffffffffffffffffffffffffffffffffffffff1673ffffffffffffffffffffffffffffffffffffffff16815260200191505060405180910390f35b34801561013457600080fd5b5061013d610246565b005b34801561014b57600080fd5b5061015461031f565b005b34801561016257600080fd5b50610197600480360381019080803573ffffffffffffffffffffffffffffffffffffffff1690602001909291905050506103b2565b005b3480156101a557600080fd5b506101c660048036038101908080351515906020019092919050505061044d565b005b3480156101d457600080fd5b506101f760048036038101908080356000191690602001909291905050506104c1565b005b60006001905090565b6000806000836000191660001916815260200190815260200160002060009054906101000a900473ffffffffffffffffffffffffffffffffffffffff169050919050565b600160009054906101000a900473ffffffffffffffffffffffffffffffffffffffff1673ffffffffffffffffffffffffffffffffffffffff163373ffffffffffffffffffffffffffffffffffffffff16141561031d57600160009054906101000a900473ffffffffffffffffffffffffffffffffffffffff1673ffffffffffffffffffffffffffffffffffffffff166108fc3073ffffffffffffffffffffffffffffffffffffffff16319081150290604051600060405180830381858888f1935050505015801561031b573d6000803e3d6000fd5b505b565b600160009054906101000a900473ffffffffffffffffffffffffffffffffffffffff1673ffffffffffffffffffffffffffffffffffffffff163373ffffffffffffffffffffffffffffffffffffffff1614156103b057600160009054906101000a900473ffffffffffffffffffffffffffffffffffffffff1673ffffffffffffffffffffffffffffffffffffffff16ff5b565b600160009054906101000a900473ffffffffffffffffffffffffffffffffffffffff1673ffffffffffffffffffffffffffffffffffffffff163373ffffffffffffffffffffffffffffffffffffffff16141561044a5780600260006101000a81548173ffffffffffffffffffffffffffffffffffffffff021916908373ffffffffffffffffffffffffffffffffffffffff1602179055505b50565b600160009054906101000a900473ffffffffffffffffffffffffffffffffffffffff1673ffffffffffffffffffffffffffffffffffffffff163373ffffffffffffffffffffffffffffffffffffffff1614156104be5780600260146101000a81548160ff0219169083151502179055505b50565b3373ffffffffffffffffffffffffffffffffffffffff16600080836000191660001916815260200190815260200160002060009054906101000a900473ffffffffffffffffffffffffffffffffffffffff1673ffffffffffffffffffffffffffffffffffffffff1614156105c3576040517f08c379a00000000000000000000000000000000000000000000000000000000081526004018080602001828103825260258152602001807f4861736820616c6c207265616479207265676973746572656420746f2061646481526020017f726573732e00000000000000000000000000000000000000000000000000000081525060400191505060405180910390fd5b6000806000836000191660001916815260200190815260200160002060009054906101000a900473ffffffffffffffffffffffffffffffffffffffff1673ffffffffffffffffffffffffffffffffffffffff1611156106b0576040517f08c379a000000000000000000000000000000000000000000000000000000000815260040180806020018281038252602f8152602001807f4861736820616c6c207265616479207265676973746572656420746f2064696681526020017f666572656e7420616464726573732e000000000000000000000000000000000081525060400191505060405180910390fd5b60208060ff16111561072a576040517f08c379a000000000000000000000000000000000000000000000000000000000815260040180806020018281038252600e8152602001807f4861736820746f6f206c6f6e672e00000000000000000000000000000000000081525060200191505060405180910390fd5b600260149054906101000a900460ff16156107d3576040517f08c379a000000000000000000000000000000000000000000000000000000000815260040180806020018281038252603a8152602001807f52656769737472792069732064697361626c656420626563617573652061206e81526020017f657765722076657273696f6e20697320617661696c61626c652e00000000000081525060400191505060405180910390fd5b33600080836000191660001916815260200190815260200160002060006101000a81548173ffffffffffffffffffffffffffffffffffffffff021916908373ffffffffffffffffffffffffffffffffffffffff1602179055503373ffffffffffffffffffffffffffffffffffffffff167f8fe66a5d954d6d3e0306797e31e226812a9916895165c96c367ef528076319518260405180826000191660001916815260200191505060405180910390a2505600a165627a7a72305820a6a35b28110a3d1b9608ff644c42dfa39cb59a60163e4ea6e4583cfe09454c4d0029",
  "source": "pragma solidity ^0.4.24;\n\ncontract RegisterDrupal {\n\n    // Mapping that matches Drupal generated hash with Ethereum Account address.\n    mapping (bytes32 => address) _accounts;\n\n    // Event allowing listening to newly signed Accounts (?)\n    event AccountCreated (address indexed from, bytes32 hash);\n\n    address _registryAdmin;\n\n    // Allowed to administrate accounts only, not everything\n    address _accountAdmin;\n\n    // If a newer version of this registry is available, force users to use it\n    bool _registrationDisabled;\n\n    // Register Account\n    function newUser(bytes32 hash) public {\n\n        if (_accounts[hash] == msg.sender) {\n            // Hash all ready registered to address.\n            revert('Hash all ready registered to address.');\n        }\n        else if (_accounts[hash] > 0) {\n            // Hash all ready registered to different address.\n            revert('Hash all ready registered to different address.');\n        }\n        else if (hash.length > 32) {\n            // Hash too long\n            revert('Hash too long.');\n\n        }\n        else if (_registrationDisabled){\n            // Registry is disabled because a newer version is available\n            revert('Registry is disabled because a newer version is available.');\n        }\n        else {\n            _accounts[hash] = msg.sender;\n            emit AccountCreated(msg.sender, hash);\n        }\n    }\n\n    // Validate Account\n    // This function is actually not necessary if you implement Event handling in PHP.\n    function validateUserByHash (bytes32 hash) public constant returns (address result) {\n        return _accounts[hash];\n    }\n\n    function contractExists () public pure returns (bool result){\n        return true;\n    }\n\n    // Administrative below\n    constructor() public {\n        _registryAdmin = msg.sender;\n        _accountAdmin = msg.sender; // can be changed later\n        _registrationDisabled = false;\n    }\n\n    function adminSetRegistrationDisabled(bool registrationDisabled) public {\n        // currently, the code of the registry can not be updated once it is\n        // deployed. if a newer version of the registry is available, account\n        // registration can be disabled\n        if (msg.sender == _registryAdmin) {\n            _registrationDisabled = registrationDisabled;\n        }\n    }\n\n    function adminSetAccountAdministrator(address accountAdmin) public {\n        if (msg.sender == _registryAdmin) {\n            _accountAdmin = accountAdmin;\n        }\n    }\n\n    function adminRetrieveDonations() public {\n        if (msg.sender == _registryAdmin) {\n            _registryAdmin.transfer(address(this).balance);\n        }\n    }\n\n    function adminDeleteRegistry() public {\n        if (msg.sender == _registryAdmin) {\n            selfdestruct(_registryAdmin); // this is a predefined function, it deletes the contract and returns all funds to the admin's address\n        }\n    }\n\n}\n",
  "sourcePath": "/Users/tho/htdocs/ConsenSys/DrupalEthereum/register_drupal_ethereum/register_drupal_ethereum/contracts/RegisterDrupal.sol",
  "compiler": {
    "name": "solc",
    "version": "0.4.24+commit.e67f0147.Emscripten.clang"
  },
  "schemaVersion": "2.0.1",
  "updatedAt": "2018-08-13T14:30:43.562Z"
}