{
  "contractName": "RegisterDrupal",
  "abi": [
    {
      "inputs": [],
      "payable": false,
      "stateMutability": "nonpayable",
      "type": "constructor"
    },
    {
      "anonymous": false,
      "inputs": [
        {
          "indexed": true,
          "name": "from",
          "type": "address"
        },
        {
          "indexed": true,
          "name": "hash",
          "type": "bytes32"
        },
        {
          "indexed": false,
          "name": "error",
          "type": "int256"
        }
      ],
      "name": "AccountCreatedEvent",
      "type": "event"
    },
    {
      "constant": false,
      "inputs": [
        {
          "name": "from",
          "type": "address"
        },
        {
          "name": "hash",
          "type": "bytes32"
        },
        {
          "name": "error",
          "type": "int256"
        }
      ],
      "name": "accountCreated",
      "outputs": [],
      "payable": false,
      "stateMutability": "nonpayable",
      "type": "function"
    },
    {
      "constant": false,
      "inputs": [
        {
          "name": "drupalUserHash",
          "type": "bytes32"
        }
      ],
      "name": "newUser",
      "outputs": [],
      "payable": false,
      "stateMutability": "nonpayable",
      "type": "function"
    },
    {
      "constant": true,
      "inputs": [
        {
          "name": "drupalUserHash",
          "type": "bytes32"
        }
      ],
      "name": "validateUserByHash",
      "outputs": [
        {
          "name": "result",
          "type": "address"
        }
      ],
      "payable": false,
      "stateMutability": "view",
      "type": "function"
    },
    {
      "constant": true,
      "inputs": [],
      "name": "contractExists",
      "outputs": [
        {
          "name": "result",
          "type": "bool"
        }
      ],
      "payable": false,
      "stateMutability": "view",
      "type": "function"
    },
    {
      "constant": false,
      "inputs": [
        {
          "name": "registrationDisabled",
          "type": "bool"
        }
      ],
      "name": "adminSetRegistrationDisabled",
      "outputs": [],
      "payable": false,
      "stateMutability": "nonpayable",
      "type": "function"
    },
    {
      "constant": false,
      "inputs": [
        {
          "name": "accountAdmin",
          "type": "address"
        }
      ],
      "name": "adminSetAccountAdministrator",
      "outputs": [],
      "payable": false,
      "stateMutability": "nonpayable",
      "type": "function"
    },
    {
      "constant": false,
      "inputs": [],
      "name": "adminRetrieveDonations",
      "outputs": [],
      "payable": false,
      "stateMutability": "nonpayable",
      "type": "function"
    },
    {
      "constant": false,
      "inputs": [],
      "name": "adminDeleteRegistry",
      "outputs": [],
      "payable": false,
      "stateMutability": "nonpayable",
      "type": "function"
    }
  ],
  "bytecode": "0x6060604052341561000f57600080fd5b33600160006101000a81548173ffffffffffffffffffffffffffffffffffffffff021916908373ffffffffffffffffffffffffffffffffffffffff16021790555033600260006101000a81548173ffffffffffffffffffffffffffffffffffffffff021916908373ffffffffffffffffffffffffffffffffffffffff1602179055506000600260146101000a81548160ff021916908315150217905550610702806100bb6000396000f30060606040526004361061008e576000357c0100000000000000000000000000000000000000000000000000000000900463ffffffff16806306ae948314610093578063111b72c3146100c05780632573ce271461010f578063345e3416146101765780633af41dc21461018b57806349f0c90d146101a05780639b6d86d6146101d9578063f845862f146101fe575b600080fd5b341561009e57600080fd5b6100a6610225565b604051808215151515815260200191505060405180910390f35b34156100cb57600080fd5b61010d600480803573ffffffffffffffffffffffffffffffffffffffff169060200190919080356000191690602001909190803590602001909190505061022e565b005b341561011a57600080fd5b610134600480803560001916906020019091905050610286565b604051808273ffffffffffffffffffffffffffffffffffffffff1673ffffffffffffffffffffffffffffffffffffffff16815260200191505060405180910390f35b341561018157600080fd5b6101896102ca565b005b341561019657600080fd5b61019e61039c565b005b34156101ab57600080fd5b6101d7600480803573ffffffffffffffffffffffffffffffffffffffff1690602001909190505061042f565b005b34156101e457600080fd5b6101fc600480803515159060200190919050506104ca565b005b341561020957600080fd5b61022360048080356000191690602001909190505061053e565b005b60006001905090565b81600019168373ffffffffffffffffffffffffffffffffffffffff167fdd4adf6c5ef0c5a78200bcebce519e97649524d2c8dc89cf0f8baa99cc39bb53836040518082815260200191505060405180910390a3505050565b6000806000836000191660001916815260200190815260200160002060009054906101000a900473ffffffffffffffffffffffffffffffffffffffff169050919050565b600160009054906101000a900473ffffffffffffffffffffffffffffffffffffffff1673ffffffffffffffffffffffffffffffffffffffff163373ffffffffffffffffffffffffffffffffffffffff16141561039a57600160009054906101000a900473ffffffffffffffffffffffffffffffffffffffff1673ffffffffffffffffffffffffffffffffffffffff166108fc3073ffffffffffffffffffffffffffffffffffffffff16319081150290604051600060405180830381858888f19350505050151561039957600080fd5b5b565b600160009054906101000a900473ffffffffffffffffffffffffffffffffffffffff1673ffffffffffffffffffffffffffffffffffffffff163373ffffffffffffffffffffffffffffffffffffffff16141561042d57600160009054906101000a900473ffffffffffffffffffffffffffffffffffffffff1673ffffffffffffffffffffffffffffffffffffffff16ff5b565b600160009054906101000a900473ffffffffffffffffffffffffffffffffffffffff1673ffffffffffffffffffffffffffffffffffffffff163373ffffffffffffffffffffffffffffffffffffffff1614156104c75780600260006101000a81548173ffffffffffffffffffffffffffffffffffffffff021916908373ffffffffffffffffffffffffffffffffffffffff1602179055505b50565b600160009054906101000a900473ffffffffffffffffffffffffffffffffffffffff1673ffffffffffffffffffffffffffffffffffffffff163373ffffffffffffffffffffffffffffffffffffffff16141561053b5780600260146101000a81548160ff0219169083151502179055505b50565b3373ffffffffffffffffffffffffffffffffffffffff16600080836000191660001916815260200190815260200160002060009054906101000a900473ffffffffffffffffffffffffffffffffffffffff1673ffffffffffffffffffffffffffffffffffffffff1614156105bd576105b83382600461022e565b6106d3565b6000806000836000191660001916815260200190815260200160002060009054906101000a900473ffffffffffffffffffffffffffffffffffffffff1673ffffffffffffffffffffffffffffffffffffffff161115610627576106223382600361022e565b6106d2565b60208060ff1611156106445761063f3382600261022e565b6106d1565b600260149054906101000a900460ff161561066a576106653382600161022e565b6106d0565b33600080836000191660001916815260200190815260200160002060006101000a81548173ffffffffffffffffffffffffffffffffffffffff021916908373ffffffffffffffffffffffffffffffffffffffff1602179055506106cf3382600061022e565b5b5b5b5b505600a165627a7a723058202f025b9945f3565b794a1bd1f7cee42328d08dd138a552b2b940cd9f279bdd3e0029",
  "source": "pragma solidity ^0.4.8;\n\ncontract RegisterDrupal {\n\n  // Mapping that matches Drupal generated hash with Ethereum Account address.\n  mapping (bytes32 => address) _accounts;\n\n  address _registryAdmin;\n\n  // Allowed to administrate accounts only, not everything\n  address _accountAdmin;\n\n  // If a newer version of this registry is available, force users to use it\n  bool _registrationDisabled;\n\n  // Event allowing listening to newly signed Accounts (?)\n  event AccountCreatedEvent (address indexed from, bytes32 indexed hash, int error);\n\n  function accountCreated(address from, bytes32 hash, int error) {\n    AccountCreatedEvent(from, hash, error);\n  }\n\n  // Register Account\n  function newUser(bytes32 drupalUserHash) public {\n\n    if (_accounts[drupalUserHash] == msg.sender) {\n      // Hash allready registered to address.\n      accountCreated(msg.sender, drupalUserHash, 4);\n    }\n    else if (_accounts[drupalUserHash] > 0) {\n      // Hash allready registered to different address.\n      accountCreated(msg.sender, drupalUserHash, 3);\n    }\n     else if (drupalUserHash.length > 32) {\n      // Hash too long\n      accountCreated(msg.sender, drupalUserHash, 2);\n    }\n    else if (_registrationDisabled){\n      // Registry is disabled because a newer version is available\n      accountCreated(msg.sender, drupalUserHash, 1);\n    }\n    else {\n      _accounts[drupalUserHash] = msg.sender;\n      accountCreated(msg.sender, drupalUserHash, 0);\n    }\n  }\n\n  // Validate Account\n  function validateUserByHash (bytes32 drupalUserHash) constant returns (address result){\n      return _accounts[drupalUserHash];\n  }\n\n  function contractExists () constant returns (bool result){\n    return true;\n  }\n\n  // Administrative below\n  function RegisterDrupal() {\n    _registryAdmin = msg.sender;\n    _accountAdmin = msg.sender; // can be changed later\n    _registrationDisabled = false;\n  }\n  function adminSetRegistrationDisabled(bool registrationDisabled) {\n    // currently, the code of the registry can not be updated once it is\n    // deployed. if a newer version of the registry is available, account\n    // registration can be disabled\n    if (msg.sender == _registryAdmin) {\n      _registrationDisabled = registrationDisabled;\n    }\n  }\n  function adminSetAccountAdministrator(address accountAdmin) {\n    if (msg.sender == _registryAdmin) {\n      _accountAdmin = accountAdmin;\n    }\n  }\n  function adminRetrieveDonations() {\n    if (msg.sender == _registryAdmin) {\n      if (!_registryAdmin.send(this.balance))\n        throw;\n    }\n  }\n  function adminDeleteRegistry() {\n    if (msg.sender == _registryAdmin) {\n      suicide(_registryAdmin); // this is a predefined function, it deletes the contract and returns all funds to the admin's address\n    }\n  }\n\n}\n",
  "sourcePath": "/Users/tho/htdocs/register_drupal_ethereum/register_drupal_update/contracts/RegisterDrupal.sol",
  "compiler": {
    "name": "solc",
    "version": "0.4.19+commit.c4cbbb05.Emscripten.clang"
  },
  "schemaVersion": "1.0.1",
  "updatedAt": "2018-02-21T15:37:21.248Z"
}