{
  "contractName": "RegisterDrupal",
  "abi": [
    {
      "inputs": [],
      "payable": false,
      "stateMutability": "nonpayable",
      "type": "constructor"
    },
    {
      "anonymous": false,
      "inputs": [
        {
          "indexed": true,
          "name": "from",
          "type": "address"
        },
        {
          "indexed": true,
          "name": "hash",
          "type": "bytes16"
        },
        {
          "indexed": false,
          "name": "error",
          "type": "int256"
        }
      ],
      "name": "AccountCreatedEvent",
      "type": "event"
    },
    {
      "constant": false,
      "inputs": [
        {
          "name": "from",
          "type": "address"
        },
        {
          "name": "hash",
          "type": "bytes16"
        },
        {
          "name": "error",
          "type": "int256"
        }
      ],
      "name": "accountCreated",
      "outputs": [],
      "payable": false,
      "stateMutability": "nonpayable",
      "type": "function"
    },
    {
      "constant": false,
      "inputs": [
        {
          "name": "drupalUserHash",
          "type": "bytes16"
        }
      ],
      "name": "newUser",
      "outputs": [],
      "payable": false,
      "stateMutability": "nonpayable",
      "type": "function"
    },
    {
      "constant": true,
      "inputs": [
        {
          "name": "drupalUserHash",
          "type": "bytes16"
        }
      ],
      "name": "validateUserByHash",
      "outputs": [
        {
          "name": "result",
          "type": "address"
        }
      ],
      "payable": false,
      "stateMutability": "view",
      "type": "function"
    },
    {
      "constant": true,
      "inputs": [],
      "name": "contractExists",
      "outputs": [
        {
          "name": "result",
          "type": "bool"
        }
      ],
      "payable": false,
      "stateMutability": "pure",
      "type": "function"
    },
    {
      "constant": false,
      "inputs": [
        {
          "name": "registrationDisabled",
          "type": "bool"
        }
      ],
      "name": "adminSetRegistrationDisabled",
      "outputs": [],
      "payable": false,
      "stateMutability": "nonpayable",
      "type": "function"
    },
    {
      "constant": false,
      "inputs": [
        {
          "name": "accountAdmin",
          "type": "address"
        }
      ],
      "name": "adminSetAccountAdministrator",
      "outputs": [],
      "payable": false,
      "stateMutability": "nonpayable",
      "type": "function"
    },
    {
      "constant": false,
      "inputs": [],
      "name": "adminRetrieveDonations",
      "outputs": [],
      "payable": false,
      "stateMutability": "nonpayable",
      "type": "function"
    },
    {
      "constant": false,
      "inputs": [],
      "name": "adminDeleteRegistry",
      "outputs": [],
      "payable": false,
      "stateMutability": "nonpayable",
      "type": "function"
    }
  ],
  "bytecode": "0x608060405234801561001057600080fd5b5033600160006101000a81548173ffffffffffffffffffffffffffffffffffffffff021916908373ffffffffffffffffffffffffffffffffffffffff16021790555033600260006101000a81548173ffffffffffffffffffffffffffffffffffffffff021916908373ffffffffffffffffffffffffffffffffffffffff1602179055506000600260146101000a81548160ff0219169083151502179055506107f8806100bd6000396000f30060806040526004361061008e576000357c0100000000000000000000000000000000000000000000000000000000900463ffffffff16806306ae94831461009357806318cdfdf9146100c2578063345e3416146101425780633af41dc21461015957806349f0c90d1461017057806389db7cf1146101b35780639b6d86d6146101f3578063d4c300b314610222575b600080fd5b34801561009f57600080fd5b506100a861028c565b604051808215151515815260200191505060405180910390f35b3480156100ce57600080fd5b5061010060048036038101908080356fffffffffffffffffffffffffffffffff19169060200190929190505050610295565b604051808273ffffffffffffffffffffffffffffffffffffffff1673ffffffffffffffffffffffffffffffffffffffff16815260200191505060405180910390f35b34801561014e57600080fd5b506101576102f7565b005b34801561016557600080fd5b5061016e6103d0565b005b34801561017c57600080fd5b506101b1600480360381019080803573ffffffffffffffffffffffffffffffffffffffff169060200190929190505050610463565b005b3480156101bf57600080fd5b506101f160048036038101908080356fffffffffffffffffffffffffffffffff191690602001909291905050506104fe565b005b3480156101ff57600080fd5b506102206004803603810190808035151590602001909291905050506106f1565b005b34801561022e57600080fd5b5061028a600480360381019080803573ffffffffffffffffffffffffffffffffffffffff16906020019092919080356fffffffffffffffffffffffffffffffff1916906020019092919080359060200190929190505050610765565b005b60006001905090565b6000806000836fffffffffffffffffffffffffffffffff19166fffffffffffffffffffffffffffffffff1916815260200190815260200160002060009054906101000a900473ffffffffffffffffffffffffffffffffffffffff169050919050565b600160009054906101000a900473ffffffffffffffffffffffffffffffffffffffff1673ffffffffffffffffffffffffffffffffffffffff163373ffffffffffffffffffffffffffffffffffffffff1614156103ce57600160009054906101000a900473ffffffffffffffffffffffffffffffffffffffff1673ffffffffffffffffffffffffffffffffffffffff166108fc3073ffffffffffffffffffffffffffffffffffffffff16319081150290604051600060405180830381858888f193505050501580156103cc573d6000803e3d6000fd5b505b565b600160009054906101000a900473ffffffffffffffffffffffffffffffffffffffff1673ffffffffffffffffffffffffffffffffffffffff163373ffffffffffffffffffffffffffffffffffffffff16141561046157600160009054906101000a900473ffffffffffffffffffffffffffffffffffffffff1673ffffffffffffffffffffffffffffffffffffffff16ff5b565b600160009054906101000a900473ffffffffffffffffffffffffffffffffffffffff1673ffffffffffffffffffffffffffffffffffffffff163373ffffffffffffffffffffffffffffffffffffffff1614156104fb5780600260006101000a81548173ffffffffffffffffffffffffffffffffffffffff021916908373ffffffffffffffffffffffffffffffffffffffff1602179055505b50565b3373ffffffffffffffffffffffffffffffffffffffff16600080836fffffffffffffffffffffffffffffffff19166fffffffffffffffffffffffffffffffff1916815260200190815260200160002060009054906101000a900473ffffffffffffffffffffffffffffffffffffffff1673ffffffffffffffffffffffffffffffffffffffff16141561059b5761059633826004610765565b6106ee565b6000806000836fffffffffffffffffffffffffffffffff19166fffffffffffffffffffffffffffffffff1916815260200190815260200160002060009054906101000a900473ffffffffffffffffffffffffffffffffffffffff1673ffffffffffffffffffffffffffffffffffffffff1611156106235761061e33826003610765565b6106ed565b6020601060ff1611156106415761063c33826002610765565b6106ec565b600260149054906101000a900460ff16156106675761066233826001610765565b6106eb565b33600080836fffffffffffffffffffffffffffffffff19166fffffffffffffffffffffffffffffffff1916815260200190815260200160002060006101000a81548173ffffffffffffffffffffffffffffffffffffffff021916908373ffffffffffffffffffffffffffffffffffffffff1602179055506106ea33826000610765565b5b5b5b5b50565b600160009054906101000a900473ffffffffffffffffffffffffffffffffffffffff1673ffffffffffffffffffffffffffffffffffffffff163373ffffffffffffffffffffffffffffffffffffffff1614156107625780600260146101000a81548160ff0219169083151502179055505b50565b816fffffffffffffffffffffffffffffffff19168373ffffffffffffffffffffffffffffffffffffffff167faa424af9f69e61976482df311b9169b953b92ba2f2d6e7176c0cea2517b5a40c836040518082815260200191505060405180910390a35050505600a165627a7a72305820ab4ab52c765472ea3fbc69203fc53c5bf5962fa3e5220d37dd0656f7188541760029",
  "source": "pragma solidity ^0.4.21;\n\ncontract RegisterDrupal {\n\n  // Mapping that matches Drupal generated hash with Ethereum Account address.\n  mapping (bytes16 => address) _accounts;\n\n  address _registryAdmin;\n\n  // Allowed to administrate accounts only, not everything\n  address _accountAdmin;\n\n  // If a newer version of this registry is available, force users to use it\n  bool _registrationDisabled;\n\n  // Event allowing listening to newly signed Accounts (?)\n  event AccountCreatedEvent (address indexed from, bytes16 indexed hash, int error);\n\n  function accountCreated(address from, bytes16 hash, int error) public {\n    emit AccountCreatedEvent(from, hash, error);\n  }\n\n  // Register Account\n  function newUser(bytes16 drupalUserHash) public {\n\n    if (_accounts[drupalUserHash] == msg.sender) {\n      // Hash allready registered to address.\n      accountCreated(msg.sender, drupalUserHash, 4);\n    }\n    else if (_accounts[drupalUserHash] > 0) {\n      // Hash allready registered to different address.\n      accountCreated(msg.sender, drupalUserHash, 3);\n    }\n     else if (drupalUserHash.length > 32) {\n      // Hash too long\n      accountCreated(msg.sender, drupalUserHash, 2);\n    }\n    else if (_registrationDisabled){\n      // Registry is disabled because a newer version is available\n      accountCreated(msg.sender, drupalUserHash, 1);\n    }\n    else {\n      _accounts[drupalUserHash] = msg.sender;\n      accountCreated(msg.sender, drupalUserHash, 0);\n    }\n  }\n\n  // Validate Account\n  function validateUserByHash (bytes16 drupalUserHash) public constant returns (address result) {\n      return _accounts[drupalUserHash];\n  }\n\n  function contractExists () public pure returns (bool result){\n    return true;\n  }\n\n  // Administrative below\n  constructor() public {\n    _registryAdmin = msg.sender;\n    _accountAdmin = msg.sender; // can be changed later\n    _registrationDisabled = false;\n  }\n\n  function adminSetRegistrationDisabled(bool registrationDisabled) public {\n    // currently, the code of the registry can not be updated once it is\n    // deployed. if a newer version of the registry is available, account\n    // registration can be disabled\n    if (msg.sender == _registryAdmin) {\n      _registrationDisabled = registrationDisabled;\n    }\n  }\n\n  function adminSetAccountAdministrator(address accountAdmin) public {\n    if (msg.sender == _registryAdmin) {\n      _accountAdmin = accountAdmin;\n    }\n  }\n\n  function adminRetrieveDonations() public {\n    if (msg.sender == _registryAdmin) {\n      _registryAdmin.transfer(address(this).balance);\n    }\n  }\n\n  function adminDeleteRegistry() public {\n    if (msg.sender == _registryAdmin) {\n      selfdestruct(_registryAdmin); // this is a predefined function, it deletes the contract and returns all funds to the admin's address\n    }\n  }\n\n}\n",
  "sourcePath": "/Users/tho/htdocs/register_drupal_ethereum/register_drupal_ethereum/contracts/RegisterDrupal.sol",
  "compiler": {
    "name": "solc",
    "version": "0.4.23+commit.124ca40d.Emscripten.clang"
  },
  "schemaVersion": "2.0.0",
  "updatedAt": "2018-05-04T17:17:53.460Z"
}